:100000000C942A000C9434000C9434000C943400AA
:100010000C9434000C9434000C9434000C94340090
:100020000C9434000C9434000C9434000C94340080
:100030000C9434000C9434000C9434000C94340070
:100040000C9434000C9434000C9434000C94340060
:100050000C94340011241FBECFE5D8E0DEBFCDBF25
:100060000E9436000C94DF000C940000DF93CF93C5
:1000700000D00F92CDB7DEB7AAE3B0E0EAE3F0E03C
:10008000808181608C93AAE3B0E0EAE3F0E08081B4
:1000900082608C93ABE3B0E0EBE3F0E080818E7F95
:1000A0008C93ABE3B0E0EBE3F0E080818D7F8C9349
:1000B000A7E3B0E0E7E3F0E080818D7F8C93A7E3D6
:1000C000B0E0E7E3F0E080818B7F8C93A7E3B0E0C2
:1000D000E7E3F0E08081877F8C93A8E3B0E0E8E37A
:1000E000F0E0808182608C93A8E3B0E0E8E3F0E088
:1000F000808184608C93A8E3B0E0E8E3F0E0808145
:1001000088608C931B821A821982E6E3F0E080817A
:10011000869581708B83E6E3F0E0808186958695F5
:1001200081708A83E6E3F0E08081869586958695E6
:10013000817089838B81882379F4ABE3B0E0EBE3B2
:10014000F0E0808181608C93ABE3B0E0EBE3F0E022
:1001500080818D7F8C93D9CF8A81882379F4ABE31A
:10016000B0E0EBE3F0E080818E7F8C93ABE3B0E016
:10017000EBE3F0E0808182608C93C7CF8981882394
:1001800079F4ABE3B0E0EBE3F0E0808181608C9345
:10019000ABE3B0E0EBE3F0E0808182608C93B5CF1D
:1001A000ABE3B0E0EBE3F0E080818E7F8C93ABE3D8
:1001B000B0E0EBE3F0E080818D7F8C93A6CFF894E4
:0201C000FFCF6F
:00000001FF
