:100000000C942A000C943F000C943F000C943F0089
:100010000C943F000C943F000C943F000C943F0064
:100020000C943F000C943F000C943F000C943F0054
:100030000C943F000C943F000C943F000C943F0044
:100040000C943F000C943F000C943F000C943F0034
:100050000C943F0011241FBECFE5D8E0DEBFCDBF1A
:1000600010E0A0E6B0E0ECECF1E002C005900D92EB
:10007000AA36B107D9F70E9441000C94E4000C9411
:100080000000DF93CF93CDB7DEB762970FB6F89439
:10009000DEBF0FBECDBFCE0104969F878E87E0E600
:1000A000F0E0F98BE88BFAE0FA8BE889F9890080B7
:1000B000888999890196998B888BEE85FF850082C6
:1000C0008E859F8501969F878E879A8991509A8BFE
:1000D000EA89EE2351F71B821A821982AAE3B0E063
:1000E000EAE3F0E080818E7F8C93AAE3B0E0EAE35C
:1000F000F0E080818D7F8C93ABE3B0E0EBE3F0E048
:10010000808181608C93ABE3B0E0EBE3F0E0808131
:1001100082608C93E4E3F0E08FEF8083A5E3B0E0AE
:100120008981282F30E0CE010496FC01E20FF31FF5
:1001300080818C93E9E3F0E0808181708B83E9E337
:10014000F0E08081869581708A838B818823E1F439
:100150008981893078F789818F5F8983E9E3F0E0CD
:100160008081882F90E0817090700097B9F3A5E3AB
:10017000B0E08981282F30E0CE010496FC01E20F27
:10018000F31F80818C93D6CF8A81882399F6898149
:10019000882381F2898181508983E9E3F0E08081BD
:1001A0008695882F90E0817090700097B1F3A5E359
:1001B000B0E08981282F30E0CE010496FC01E20FE7
:0C01C000F31F80818C93B6CFF894FFCF22
:0A01CC003F065B4F666D7D077F6FF5
:00000001FF
